{
  "contractName": "DocumentVerification",
  "abi": [
    {
      "anonymous": false,
      "inputs": [
        {
          "indexed": false,
          "internalType": "string",
          "name": "hash",
          "type": "string"
        },
        {
          "indexed": false,
          "internalType": "uint256",
          "name": "timestamp",
          "type": "uint256"
        }
      ],
      "name": "DocumentAdded",
      "type": "event"
    },
    {
      "inputs": [
        {
          "internalType": "string",
          "name": "",
          "type": "string"
        }
      ],
      "name": "documents",
      "outputs": [
        {
          "internalType": "string",
          "name": "hash",
          "type": "string"
        },
        {
          "internalType": "uint256",
          "name": "timestamp",
          "type": "uint256"
        }
      ],
      "stateMutability": "view",
      "type": "function",
      "constant": true
    },
    {
      "inputs": [
        {
          "internalType": "string",
          "name": "_hash",
          "type": "string"
        }
      ],
      "name": "addDocumentHash",
      "outputs": [],
      "stateMutability": "nonpayable",
      "type": "function"
    },
    {
      "inputs": [
        {
          "internalType": "string",
          "name": "_hash",
          "type": "string"
        }
      ],
      "name": "verifyDocumentHash",
      "outputs": [
        {
          "internalType": "bool",
          "name": "",
          "type": "bool"
        }
      ],
      "stateMutability": "view",
      "type": "function",
      "constant": true
    },
    {
      "inputs": [],
      "name": "getAllHashes",
      "outputs": [
        {
          "internalType": "string[]",
          "name": "",
          "type": "string[]"
        }
      ],
      "stateMutability": "view",
      "type": "function",
      "constant": true
    }
  ],
  "bytecode": "0x608060405234801561001057600080fd5b506109ae806100206000396000f3fe608060405234801561001057600080fd5b506004361061004c5760003560e01c80636991294714610051578063b3dd697b1461006d578063d495c9471461009e578063fe99f742146100ce575b600080fd5b61006b600480360381019061006691906103d2565b6100ec565b005b610087600480360381019061008291906103d2565b61017e565b6040516100959291906104b3565b60405180910390f35b6100b860048036038101906100b391906103d2565b610240565b6040516100c591906104fe565b60405180910390f35b6100d661026e565b6040516100e39190610625565b60405180910390f35b6040518060400160405280828152602001428152506000826040516101119190610683565b9081526020016040518091039020600082015181600001908161013491906108a6565b50602082015181600101559050507faf3fa066196f7e740d26c19414028cb0e3a456ed55619f6711e6415f6a3be21081426040516101739291906104b3565b60405180910390a150565b6000818051602081018201805184825260208301602085012081835280955050505050506000915090508060000180546101b7906106c9565b80601f01602080910402602001604051908101604052809291908181526020018280546101e3906106c9565b80156102305780601f1061020557610100808354040283529160200191610230565b820191906000526020600020905b81548152906001019060200180831161021357829003601f168201915b5050505050908060010154905082565b6000806000836040516102539190610683565b90815260200160405180910390206001015414159050919050565b6060808091505090565b6000604051905090565b600080fd5b600080fd5b600080fd5b600080fd5b6000601f19601f8301169050919050565b7f4e487b7100000000000000000000000000000000000000000000000000000000600052604160045260246000fd5b6102df82610296565b810181811067ffffffffffffffff821117156102fe576102fd6102a7565b5b80604052505050565b6000610311610278565b905061031d82826102d6565b919050565b600067ffffffffffffffff82111561033d5761033c6102a7565b5b61034682610296565b9050602081019050919050565b82818337600083830152505050565b600061037561037084610322565b610307565b90508281526020810184848401111561039157610390610291565b5b61039c848285610353565b509392505050565b600082601f8301126103b9576103b861028c565b5b81356103c9848260208601610362565b91505092915050565b6000602082840312156103e8576103e7610282565b5b600082013567ffffffffffffffff81111561040657610405610287565b5b610412848285016103a4565b91505092915050565b600081519050919050565b600082825260208201905092915050565b60005b8381101561045557808201518184015260208101905061043a565b60008484015250505050565b600061046c8261041b565b6104768185610426565b9350610486818560208601610437565b61048f81610296565b840191505092915050565b6000819050919050565b6104ad8161049a565b82525050565b600060408201905081810360008301526104cd8185610461565b90506104dc60208301846104a4565b9392505050565b60008115159050919050565b6104f8816104e3565b82525050565b600060208201905061051360008301846104ef565b92915050565b600081519050919050565b600082825260208201905092915050565b6000819050602082019050919050565b600082825260208201905092915050565b60006105618261041b565b61056b8185610545565b935061057b818560208601610437565b61058481610296565b840191505092915050565b600061059b8383610556565b905092915050565b6000602082019050919050565b60006105bb82610519565b6105c58185610524565b9350836020820285016105d785610535565b8060005b8581101561061357848403895281516105f4858261058f565b94506105ff836105a3565b925060208a019950506001810190506105db565b50829750879550505050505092915050565b6000602082019050818103600083015261063f81846105b0565b905092915050565b600081905092915050565b600061065d8261041b565b6106678185610647565b9350610677818560208601610437565b80840191505092915050565b600061068f8284610652565b915081905092915050565b7f4e487b7100000000000000000000000000000000000000000000000000000000600052602260045260246000fd5b600060028204905060018216806106e157607f821691505b6020821081036106f4576106f361069a565b5b50919050565b60008190508160005260206000209050919050565b60006020601f8301049050919050565b600082821b905092915050565b60006008830261075c7fffffffffffffffffffffffffffffffffffffffffffffffffffffffffffffffff8261071f565b610766868361071f565b95508019841693508086168417925050509392505050565b6000819050919050565b60006107a361079e6107998461049a565b61077e565b61049a565b9050919050565b6000819050919050565b6107bd83610788565b6107d16107c9826107aa565b84845461072c565b825550505050565b600090565b6107e66107d9565b6107f18184846107b4565b505050565b5b818110156108155761080a6000826107de565b6001810190506107f7565b5050565b601f82111561085a5761082b816106fa565b6108348461070f565b81016020851015610843578190505b61085761084f8561070f565b8301826107f6565b50505b505050565b600082821c905092915050565b600061087d6000198460080261085f565b1980831691505092915050565b6000610896838361086c565b9150826002028217905092915050565b6108af8261041b565b67ffffffffffffffff8111156108c8576108c76102a7565b5b6108d282546106c9565b6108dd828285610819565b600060209050601f83116001811461091057600084156108fe578287015190505b610908858261088a565b865550610970565b601f19841661091e866106fa565b60005b8281101561094657848901518255600182019150602085019450602081019050610921565b86831015610963578489015161095f601f89168261086c565b8355505b6001600288020188555050505b50505050505056fea2646970667358221220ab6208698a5fce4fd33ec8208f5592aec58dc2ac07bab5e3e7dadd99beee72c964736f6c63430008130033",
  "immutableReferences": {},
  "source": "// SPDX-License-Identifier: MIT\npragma solidity ^0.8.0;\n\ncontract DocumentVerification {\n\n    struct Document {\n        string hash;\n        uint timestamp;\n    }\n\n    mapping(string => Document) public documents;\n\n    event DocumentAdded(string hash, uint timestamp);\n\n    function addDocumentHash(string memory _hash) public {\n        documents[_hash] = Document(_hash, block.timestamp);\n        emit DocumentAdded(_hash, block.timestamp);\n    }\n\n    function verifyDocumentHash(string memory _hash) public view returns (bool) {\n        return documents[_hash].timestamp != 0;\n    }\n\n    function getAllHashes() public view returns (string[] memory) {\n        // Simplified (not storing array for now)\n        string[] memory dummy;\n        return dummy;\n    }\n}\n",
  "sourcePath": "C:\\Users\\Deepika\\OneDrive\\Desktop\\project_blockchain\\document verification system\\Blockchain\\contracts\\DocumentVerification.sol",
  "compiler": {
    "name": "solc",
    "version": "0.8.19+commit.7dd6d404.Emscripten.clang"
  },
  "schemaVersion": "3.4.13",
  "updatedAt": "2026-04-18T10:29:47.113Z",
  "networkType": "ethereum",
  "devdoc": {
    "kind": "dev",
    "methods": {},
    "version": 1
  },
  "userdoc": {
    "kind": "user",
    "methods": {},
    "version": 1
  }
}