{
  "contractName": "DocumentVerification",
  "abi": [
    {
      "inputs": [
        {
          "internalType": "string",
          "name": "",
          "type": "string"
        }
      ],
      "name": "documents",
      "outputs": [
        {
          "internalType": "string",
          "name": "hash",
          "type": "string"
        },
        {
          "internalType": "uint256",
          "name": "timestamp",
          "type": "uint256"
        }
      ],
      "stateMutability": "view",
      "type": "function"
    },
    {
      "inputs": [
        {
          "internalType": "string",
          "name": "_hash",
          "type": "string"
        }
      ],
      "name": "storeDocument",
      "outputs": [],
      "stateMutability": "nonpayable",
      "type": "function"
    },
    {
      "inputs": [
        {
          "internalType": "string",
          "name": "_hash",
          "type": "string"
        }
      ],
      "name": "verifyDocument",
      "outputs": [
        {
          "internalType": "bool",
          "name": "",
          "type": "bool"
        }
      ],
      "stateMutability": "view",
      "type": "function"
    }
  ],
  "bytecode": "0x608060405234801561001057600080fd5b50610497806100206000396000f3fe608060405234801561001057600080fd5b50600436106100415760003560e01c8063b3dd697b14610046578063b644f35014610070578063beee5eb714610085575b600080fd5b6100596100543660046101ec565b6100a8565b6040516100679291906102c1565b60405180910390f35b61008361007e3660046101ec565b610157565b005b6100986100933660046101ec565b6101aa565b6040519015158152602001610067565b80516020818301810180516000825292820191909301209152805481906100ce906102fc565b80601f01602080910402602001604051908101604052809291908181526020018280546100fa906102fc565b80156101475780601f1061011c57610100808354040283529160200191610147565b820191906000526020600020905b81548152906001019060200180831161012a57829003601f168201915b5050505050908060010154905082565b60405180604001604052808281526020014281525060008260405161017c9190610336565b9081526040519081900360200190208151819061019990826103a1565b506020820151816001015590505050565b600080826040516101bb9190610336565b90815260405190819003602001902060010154151592915050565b634e487b7160e01b600052604160045260246000fd5b6000602082840312156101fe57600080fd5b813567ffffffffffffffff8082111561021657600080fd5b818401915084601f83011261022a57600080fd5b81358181111561023c5761023c6101d6565b604051601f8201601f19908116603f01168101908382118183101715610264576102646101d6565b8160405282815287602084870101111561027d57600080fd5b826020860160208301376000928101602001929092525095945050505050565b60005b838110156102b85781810151838201526020016102a0565b50506000910152565b60408152600083518060408401526102e081606085016020880161029d565b602083019390935250601f91909101601f191601606001919050565b600181811c9082168061031057607f821691505b60208210810361033057634e487b7160e01b600052602260045260246000fd5b50919050565b6000825161034881846020870161029d565b9190910192915050565b601f82111561039c57600081815260208120601f850160051c810160208610156103795750805b601f850160051c820191505b8181101561039857828155600101610385565b5050505b505050565b815167ffffffffffffffff8111156103bb576103bb6101d6565b6103cf816103c984546102fc565b84610352565b602080601f83116001811461040457600084156103ec5750858301515b600019600386901b1c1916600185901b178555610398565b600085815260208120601f198616915b8281101561043357888601518255948401946001909101908401610414565b50858210156104515787850151600019600388901b60f8161c191681555b5050505050600190811b0190555056fea26469706673582212207f5fc0bb8ef05adc8f80571bfc6f0723d10c6a40c2e489c81fc36d678975cd9564736f6c63430008130033",
  "immutableReferences": {},
  "source": "// SPDX-License-Identifier: MIT\r\npragma solidity ^0.8.0;\r\n\r\ncontract DocumentVerification {\r\n    struct Document {\r\n        string hash;\r\n        uint timestamp;\r\n    }\r\n\r\n    mapping(string => Document) public documents;\r\n\r\n    function storeDocument(string memory _hash) public {\r\n        documents[_hash] = Document(_hash, block.timestamp);\r\n    }\r\n\r\n    function verifyDocument(string memory _hash) public view returns (bool) {\r\n        return documents[_hash].timestamp != 0;\r\n    }\r\n}\r\n",
  "sourcePath": "C:\\Users\\Deepika\\OneDrive\\Desktop\\project_blockchain\\document verification system\\contracts\\DocumentVerification.sol",
  "compiler": {
    "name": "solc",
    "version": "0.8.19+commit.7dd6d404.Emscripten.clang"
  },
  "schemaVersion": "3.4.13",
  "updatedAt": "2026-04-18T10:19:22.921Z",
  "devdoc": {
    "kind": "dev",
    "methods": {},
    "version": 1
  },
  "userdoc": {
    "kind": "user",
    "methods": {},
    "version": 1
  }
}